:100000000C9434000C943E000C943E000C943E0082
:100010000C943E000C943E000C943E000C943E0068
:100020000C943E000C943E000C943E000C943E0058
:100030000C943E000C943E000C943E000C943E0048
:100040000C943E000C943E000C943E000C943E0038
:100050000C943E000C943E000C943E000C943E0028
:100060000C943E000C943E0011241FBECFEFD8E04C
:10007000DEBFCDBF0E9465000C946F000C940000A1
:1000800016BC87EC87BD84B58E7F84BD84B5826045
:1000900084BD85B5846085BD85B58D7F85BD85B5FD
:1000A000816085BD40E050E0BA0109C0A99BFECF48
:1000B00085B3826085BB4F5F5F4F6F4F7F4F4E347C
:1000C00051056105710594F3089584B1806284B986
:1000D00095B180E2892785B90E944000F9CFF89454
:0200E000FFCF50
:00000001FF
