:100000000C9434000C943E000C943E000C943E0082
:100010000C943E000C943E000C943E000C943E0068
:100020000C943E000C943E000C943E000C943E0058
:100030000C943E000C943E000C943E000C943E0048
:100040000C943E000C943E000C943E000C943E0038
:100050000C943E000C943E000C943E000C943E0028
:100060000C943E000C943E0011241FBECFEFD8E04C
:10007000DEBFCDBF0E9440000C945A000C940000DB
:10008000239A229A2098289A2B9A2A9828E094E07A
:100090001899FECF85B1822785B985B1892785B9A1
:1000A0003FEF49E688E1315040408040E1F700C031
:0800B0000000EECFF894FFCF31
:00000001FF
