S011000070776D5F64656C61792E7372656351
S11300000C9434000C943E000C943E000C943E007E
S11300100C943E000C943E000C943E000C943E0064
S11300200C943E000C943E000C943E000C943E0054
S11300300C943E000C943E000C943E000C943E0044
S11300400C943E000C943E000C943E000C943E0034
S11300500C943E000C943E000C943E000C943E0024
S11300600C943E000C943E0011241FBECFEFD8E048
S1130070DEBFCDBF0E9440000C945C000C940000D5
S11300808AB180648AB916BC84B5816084BD84B5A4
S11300908D7F84BD84B5806884BD84B58F7B84BD29
S11300A085B5826085BD85B58E7F85BD85B58B7F21
S10F00B085BD8FEF87BDFFCFF894FFCF14
S9030000FC
