:100000000C9434000C9449000C9449000C94490061
:100010000C9449000C9449000C9449000C9449003C
:100020000C9449000C9449000C9449000C9449002C
:100030000C9449000C9449000C9449000C9449001C
:100040000C9449000C9449000C9449000C9449000C
:100050000C9449000C9449000C9449000C944900FC
:100060000C9449000C94490011241FBECFEFD8E036
:10007000DEBFCDBF11E0A0E0B1E0E6E1F3E002C0F9
:1000800005900D92A63BB107D9F70E94B4000C94DD
:1000900089010C9400001092C50087E68093C4008B
:1000A000E2ECF0E08081866080838081877C8083C1
:1000B000E1ECF0E08081886180830895FC0181910A
:1000C000811101C008959091C00095FFFCCF8093ED
:1000D000C600F5CF8091C00087FFFCCF8091C6009D
:1000E0000895EF92FF920F931F93CF938C01C0E07E
:1000F000862F8150990B7C010E946A002C2F30E0E2
:10010000F801E20FF31F8D3029F08A3019F02E1517
:100110003F053CF01082CF911F910F91FF90EF901F
:100120000895CF5F8083E8CF84B5816084BD84B5B6
:100130008D7F84BD84B5806884BD84B58F7B84BD8C
:1001400085B5826085BD85B58E7F85BD85B58B7F84
:1001500085BD08952FEF829FC001112464E670E0F1
:100160000E94320167BD0895CDB7DEB764970FB620
:10017000F894DEBF0FBECDBF569A0E944B000E947E
:10018000940080E091E00E945E0082E191E00E9494
:100190005E0084E191E00E945E0082E191E00E94B5
:1001A0005E008CE191E00E945E0082E191E00E949D
:1001B0005E0086E291E00E945E0082E191E00E9492
:1001C0005E0087E391E00E945E0082E191E00E9480
:1001D0005E0064E1CE0101960E94710069E171E068
:1001E000CE0101960E947801892B59F584E60E9480
:1001F000AA0085E491E00E945E0082E191E00E9405
:100200005E0083E591E00E945E0082E191E00E9441
:100210005E0064E1CE0101960E947100CE0101965C
:100220000E945A01853668F60E94AA0081E891E092
:100230000E945E00CE0101960E945E0084E991E07A
:10024000BACF62E271E0CE0101960E947801892B5B
:1002500031F480E00E94AA0086E991E0ACCF85EA03
:1002600091E0A9CF97FB072E16F4009407D077FDF5
:1002700009D00E94460107FC05D03EF49095819577
:100280009F4F0895709561957F4F0895AA1BBB1BE2
:1002900051E107C0AA1FBB1FA617B70710F0A61B86
:1002A000B70B881F991F5A95A9F780959095BC01A7
:1002B000CD010895FC0188279927E89421912032E7
:1002C000E9F3293010F02E30C8F32B3241F02D32F3
:1002D00039F4689404C00E948101820F911D21911C
:1002E00020532A30C0F31EF4909581959F4F0895B6
:1002F000FB01DC018D91019080190110D9F3990B5C
:1003000008957AE0979F902D879F802D910D11245D
:060310000895F894FFCFF0
:100316004C4544204C6967687420436F6E74726F55
:100326006C000A006F6E203A206F6E006F666620C2
:100336003A206F6666004272696768746E65737309
:1003460020302D31303000456E74657220636F6D3C
:100356006D616E64004C4544207475726E65642050
:100366006F6E00456E7465722070657263656E749B
:1003760061676528302D3130302920746F20636F16
:100386006E74726F6C206272696768746E657373DF
:10039600004272696768746E6573732073657420B2
:1003A600746F200025004C4544207475726E656498
:1003B600206F666600496E76616C696420636F6DB6
:0603C6006D616E64000091
:00000001FF
