S019000064635F6D6F746F725F6D6F64756C6172322E737265632F
S11300000C9434000C943E000C943E000C943E007E
S11300100C943E000C943E000C943E000C943E0064
S11300200C943E000C943E000C943E000C943E0054
S11300300C943E000C943E000C943E000C943E0044
S11300400C943E000C943E000C943E000C943E0034
S11300500C943E000C943E000C943E000C943E0024
S11300600C943E000C943E0011241FBECFEFD8E048
S1130070DEBFCDBF0E947D000C948F000C94000065
S11300808AB180648AB98AB180688AB98BB18F7762
S11300908BB984B5816084BD84B58D7F84BD85B5FD
S11300A08A7F85BD85B5826085BD84B5806884BD41
S11300B084B58F7B84BD089517BC089587BD0895CA
S11300C016BC89EF87BD84B5826084BD84B58E7FFC
S11300D084BD85B5836085BD85B58B7F85BD089559
S11300E006C0A99BFECF85B3826085BBC9019C0174
S11300F021503109892BA9F708950E9460000E94BC
S1130100400088EC0E945E0080E197E20E9470004B
S11301100E945C0080E197E20E947000F2CFF894A4
S1050120FFCF0B
S9030000FC
