:100000000C9434000C9451000C9451000C94510049
:100010000C9451000C9451000C9451000C9451001C
:100020000C9451000C9451000C9451000C9451000C
:100030000C9451000C9451000C9451000C945100FC
:100040000C9451000C9451000C9451000C945100EC
:100050000C9451000C9451000C9451000C945100DC
:100060000C9451000C94510011241FBECFEFD8E026
:10007000DEBFCDBF16E0A0E0B1E0ECE4F3E102C0EA
:1000800005900D92AE36B107D9F726E0AEE6B6E0A0
:1000900001C01D92AA38B207E1F70E940F060C9426
:1000A000A4090C940000CF930E9452048CEE0E948D
:1000B0005A0480ED0E945A040E9452048DEE0E9460
:1000C0005A040E946E04C82F0E9478048C2FCF918E
:1000D00008950E9452048CEE0E945A0484EF0E94FC
:1000E0005A048FE40E945A040E9478042FEF81EE94
:1000F00094E0215080409040E1F700C00000089556
:10010000EF92FF920F931F93CF93DF93CDB7DEB79C
:1001100068970FB6F894DEBF0FBECDBF0E945204A1
:100120008CEE0E945A0488E80E945A040E945204ED
:100130008DEE0E945A048E010F5F1F4F7E0188E1F1
:10014000E80EF11C0E946404F80181938F01EE1502
:10015000FF05C1F70E946E04182F0E947804898160
:100160009A8190938906809388068B819C819093D5
:100170008706809386068D819E8190938506809365
:1001800084068F8198859093830680938206898563
:100190009A8590938106809380068B859C859093A9
:1001A0007F0680937E068D859E8590937D06809345
:1001B0007C068F85988990937B0680937A0689893F
:1001C0009A8990937906809378068B899C8990937D
:1001D0007706809376068D899E8990937506809325
:1001E00074068F89912F9093730680937206689698
:1001F0000FB6F894DEBF0FBECDBFDF91CF911F9138
:100200000F91FF90EF9008951F93CF93DF9300D04D
:1002100000D00F92CDB7DEB70E9452048CEE0E9440
:100220005A048AEF0E945A040E9452048DEE0E94E2
:100230005A040E94640489830E946404182F0E9457
:100240006E048D830E9478042981422F50E070E073
:1002500060E08CE0440F551F661F771F8A95D1F729
:10026000812F90E0B0E0A0E024E0880F991FAA1F42
:10027000BB1F2A95D1F7842B952BA62BB72B3D813D
:1002800032953F70632F9C01AD01262BCA01B90145
:100290000F900F900F900F900F90DF91CF911F91C3
:1002A00008951F93CF93DF9300D000D00F92CDB766
:1002B000DEB70E9452048CEE0E945A0487EF0E941F
:1002C0005A040E9452048DEE0E945A040E94640453
:1002D00089830E946404182F0E946E048D830E94FB
:1002E00078042981422F50E070E060E08CE0440FF8
:1002F000551F661F771F8A95D1F7812F90E0B0E0D8
:10030000A0E024E0880F991FAA1FBB1F2A95D1F7F0
:10031000842B952BA62BB72B3D8132953F70632FF5
:100320009C01AD01262BCA01B9010F900F900F90CF
:100330000F900F90DF91CF911F910895CF92DF9290
:10034000EF92FF920F931F93CF93DF93CDB7DEB75A
:1003500028970FB6F894DEBF0FBECDBF462F572F9C
:10036000BC018091880690918906B0E0A0E06A0106
:100370007B0124E0F594E794D794C7942A95D1F7AC
:1003800097018601081B190B2A0B3B0B09831A8363
:100390002B833C8333E075956795579547953A9540
:1003A000D1F7880F991FAA1FBB1F9A01AB01281B09
:1003B000390B4A0B5B0BA0918606B09187060E9411
:1003C000C9076B017C01FBE0F594E794D794C794CF
:1003D000FA95D1F729813A814B815C81CA01B90133
:1003E0000E944D079B01AC01ACE0559547953795B0
:1003F0002795AA95D1F7A0918406B09185060E9411
:10040000C9079B01AC01BEE05595479537952795E7
:10041000BA95D1F72C0D3D1D4E1D5F1D20936E0624
:1004200030936F064093700650937106A5E0B0E0DC
:100430000E94BE07DC01CB0180589F4FAF4FBF4FDA
:10044000292F3A2F4B2F552747FD5A95CA01B9013D
:1004500028960FB6F894DEBF0FBECDBFDF91CF91C7
:100460001F910F91FF90EF90DF90CF9008952F9202
:100470003F924F925F926F927F928F929F92AF9234
:10048000BF92CF92DF92EF92FF920F931F93CF9381
:10049000DF93CDB7DEB76B970FB6F894DEBF0FBE14
:1004A000CDBF69837A838B839C8380916E06909104
:1004B0006F06A0917006B09171066C017D01FF0C72
:1004C000CC08DC2C76019C01AD016C2D7C2D8C2D93
:1004D0009C2D345F414051096109710981099109DD
:1004E0002B8F3A8F2A013B014C0159016A017B0194
:1004F0008C010E94D107322E232E498B5A8B6B8B95
:100500007C8B888F998F3091810620918006932F64
:10051000990F990B492F592F692F792F892F0E94F5
:10052000D1070CE00E9400092D833D874E875F872D
:10053000688B7D8B8E8B9F8B30917F0620917E0602
:10054000932F990F990BA32CB22CC988DA88EB88CA
:10055000FC88088D198D492F592F692F792F892FE4
:100560000E94D10708E00E941909AD80BD84CE84A5
:10057000DF84E888FD880E891F890E94360970583B
:100580008F4F9F4FE0918206F09183065F01D12C3F
:10059000C12CE12CF12C8701ED83BE82CF82D8865D
:1005A000E986FA860B871C87C12CD12CE12CF12C13
:1005B00000E010E00E94D10701E20E9419092D839A
:1005C0003D874E875F87688B7D8B8E8B9F8BA0E0EE
:1005D0000E94480909F458C13091790620917806A3
:1005E000932F990F990BA32CB22CC988DA88EB882A
:1005F000FC88088D198D492F592F692F792F892F44
:100600000E94D1071901498B5A8B6B8B7C8B888F89
:10061000998F30917B0620917A06932F990F990B31
:10062000AB8CBA8C620173018401492F592F692F59
:10063000792F892F0E94D10701E10E940009510101
:10064000C988DA88EB88FC88088D198D0E943609E4
:10065000298B3A8B3A014B018B8B9C8B29803A80FA
:100660004B805C80550C2208322C210120E030E0C8
:1006700040E150E060E070E080E090E0A980BA8066
:10068000CB80DC80E22CF22C022D122D0E943F093F
:100690000FE10E940009288F3983B42FA52FF62F70
:1006A000E72F1C0130917D0620917C06932F990F36
:1006B000990B492F592F692F792F892F03E20E9417
:1006C0000009A988BA88630174010B891C890E94FA
:1006D000360959016A017B018C01288D39814B2F24
:1006E0005A2F6F2F7E2FC1010E943F09E5E3AE2EE6
:1006F000FCE0BF2EC12CD12CE12CF12C00E010E04D
:100700000E94D107AD80BD84CE84DF84E888FD8857
:100710000E891F890E942B08322E432E542E652EDF
:10072000762E872E982E9A8B0DE00E941909209024
:100730007306B0907206B982C22CCC0CCC08CD8264
:1007400059016A017B018C010E94D10759016A019C
:100750007B018C012981322D4D81542F642F742F00
:10076000842F942F0E94D10709E10E941909A32C1C
:10077000B42CC52CD62CE72CF82C092D1A890E94F4
:100780003609222E398B49835D836D877E878F875B
:10079000988B3091750620917406932F990F990BC1
:1007A000492F592F692F792F892F0E94D10703E1F3
:1007B0000E94190959016A017B018C01222D398996
:1007C00049815D816D857E858F8598890E94360976
:1007D00008E00E94190959016A017B01E82F192FCD
:1007E0003091770620917606932F990F990B492F18
:1007F000592F692F792F892F04E00E9400090E2FAD
:100800000E943609F22E032F142F5D836983B72FC0
:10081000F82FE92FA0E00E94480984F421503F4FAF
:100820004F4F5F4F6F4F7F4F8F4F9F4FF22E032FD2
:10083000142F5D836983B72FF82FE92F2F2D302FC9
:10084000412F5D8169817B2F8F2F9E2F08E00E94B1
:100850001909B901CA016B960FB6F894DEBF0FBE35
:10086000CDBFDF91CF911F910F91FF90EF90DF905F
:10087000CF90BF90AF909F908F907F906F905F9040
:100880004F903F902F90089560E070E080E090E0FE
:10089000E2CF1092B90088E48093B80084E080939E
:1008A000BC00089584EA8093BC008091BC0087FF5F
:1008B000FCCF08958093BB0084E88093BC008091B6
:1008C000BC0087FFFCCF089584EC8093BC0080912E
:1008D000BC0087FFFCCF8091BB00089584E8809323
:1008E000BC008091BC0087FFFCCF8091BB000895C5
:1008F00084E98093BC000895CF93C82F0E945204CE
:1009000088E70E945A0480E00E945A048C2F0E94BB
:100910005A04CF910C947804CF93C82F0E945204AC
:1009200088E70E945A0480E40E945A048C2F0E9497
:100930005A04CF910C9478048EEA0E947C0480E2E1
:100940000E947C0480E00E947C0480EB0E947C0476
:1009500088EC0E947C0480E00E947C0480E10E947C
:100960007C0480E40E947C0481E80E947C048FE780
:100970000E947C0481EA0E947C0486EA0E947C0436
:1009800088EA0E947C048FE30E947C0483ED0E942D
:100990007C0480E00E947C0485ED0E947C0480E859
:1009A0000E947C0489ED0E947C0481EF0E947C04FB
:1009B0008AED0E947C0482E10E947C048BED0E94FF
:1009C0007C0480E40E947C048DE80E947C0484E125
:1009D0000E947C048FEA0C947C04CF93C2E0C60F83
:1009E00080550E947C048C2F8F700E947C048C2F79
:1009F00082958F708061CF910C947C04CF93DF93AC
:100A0000C0E060E08C2F0E94ED04D0E880E00E94FE
:100A10008C04D150D9F7CF5FC83099F7DF91CF91CF
:100A200008951F93CF93DF9395E0899FE0011124F0
:100A3000C050DF4F15E089910E948C041150D9F706
:100A400080E0DF91CF911F910C948C04CF93DF93C2
:100A5000EC018991811103C0DF91CF9108950E942B
:100A60001105F7CFCF93C82F8A3028F06AE00E9493
:100A70005D070E9432058C2F6AE00E945D0780E3CB
:100A8000890FCF910C941105CF93DF93EC018A303D
:100A9000910538F06AE070E00E946907CB010E947E
:100AA0004405CE016AE070E00E946907805DDF9135
:100AB000CF910C941105CF93DF93CDB7DEB7289774
:100AC0000FB6F894DEBF0FBECDBF69837A838B83E8
:100AD0009C8389819A81AB81BC818A309105A10573
:100AE000B10580F0BC01CD012AE030E040E050E0EB
:100AF0000E947D072D833E834F835887CA01B90129
:100B00000E945B0569817A818B819C812AE030E0BB
:100B100040E050E00E947D0780E3860F28960FB6E4
:100B2000F894DEBF0FBECDBFDF91CF910C941105BD
:100B30001092C50087E68093C40088E18093C100CD
:100B400086E08093C20008959091C00095FFFCCF8D
:100B50008093C6000895CF93DF93EC0189918111B2
:100B600003C0DF91CF9108950E94A405F7CF1F9392
:100B7000CF93DF93CDB7DEB761970FB6F894DEBFA2
:100B80000FBECDBF182F81E1E5E5F6E0DE0111963D
:100B900001900D928A95E1F7E12FE295EF7081E0E7
:100BA00090E08C0F9D1F8E0F911DFC0180810E9493
:100BB000A405E12FEF7081E090E08C0F9D1F8E0F58
:100BC000911DFC01808161960FB6F894DEBF0FBEC7
:100BD000CDBFDF91CF911F910C94A405CF93DF93EC
:100BE000CDB7DEB72C970FB6F894DEBF0FBECDBFE2
:100BF0002AE0AE014F5F5F4F0E946309CE0101966C
:100C00000E94AB052C960FB6F894DEBF0FBECDBF89
:100C1000DF91CF91089586E696E00C94AB05CDB7B1
:100C2000DEB72A970FB6F894DEBF0FBECDBF0E9485
:100C300049040E9469000E949C040E9498050E9439
:100C4000530089830E940B0680E096E00E94AB056A
:100C500089810E94B7058AE096E00E94AB0560E0BA
:100C600080E00E94ED048DE096E00E9426052FEFC3
:100C700087EA91E6215080409040E1F700C00000F3
:100C800060E081E00E94ED0480E096E00E9426058D
:100C900089810E9432050E94800084E6882E912C72
:100CA000A12CB12C0E9404016B017C010E94510116
:100CB0008B0189879D838BE196E00E94AB05B6018D
:100CC000C7010E94EE058AE096E00E94AB058DE226
:100CD00096E00E94AB05B80189859D810E94EE05D2
:100CE0008AE096E00E94AB05B601C7010E949E0112
:100CF00069837A838B839C83B80189859D810E9457
:100D000037028B018A87998789819A81AB81BC815F
:100D1000B7FF8EC0B095A095909581959F4FAF4F2E
:100D2000BF4F89839A83AB83BC8360E082E00E94DB
:100D3000ED048CE396E00E9426058CE396E00E9489
:100D4000AB0569817A818B819C810E94EE058AE0E6
:100D500096E00E94AB0569817A818B819C81A50117
:100D600094010E949F072D833E834F835887698398
:100D70007A838B839C836A307105810591050CF021
:100D80006EC0CA01B9010E945B058BE496E00E9427
:100D9000260560E070E0CB010E945B0569817A81E5
:100DA0008B819C810E945B058DE496E00E94260564
:100DB000B8018A859985A50194010E947D072D833C
:100DC0003E834F83588769837A838B839C836A3001
:100DD00071058105910508F04DC060E084E00E9436
:100DE000ED0481E396E00E9426056D817E818F816E
:100DF00098850E945B058BE496E00E94260560E0E2
:100E000070E0CB010E945B0569817A818B819C81B6
:100E10000E945B0580E596E00E9426059FEFA7EA09
:100E2000B1E69150A040B040E1F700C000003ACFD9
:100E30008FE196E00E94AB0569817A818B819C816C
:100E40000E94EE058AE096E00E94AB0560E082E039
:100E50000E94ED048FE196E00E9426057CCF6D8113
:100E60007E818F8198850E945B058BE496E00E94CD
:100E7000260594CF60E084E00E94ED0481E396E0D3
:100E80000E9426056D817E818F8198850E945B0579
:100E90008BE496E00E942605B7CFDB018F939F93EA
:100EA0000E94BE07BF91AF91A29F800D911DA39F8D
:100EB000900DB29F900D11240895991B79E004C004
:100EC000991F961708F0961B881F7A95C9F7809589
:100ED0000895AA1BBB1B51E107C0AA1FBB1FA61781
:100EE000B70710F0A61BB70B881F991F5A95A9F7D3
:100EF00080959095BC01CD010895A1E21A2EAA1B00
:100F0000BB1BFD010DC0AA1FBB1FEE1FFF1FA217B9
:100F1000B307E407F50720F0A21BB30BE40BF50BB6
:100F2000661F771F881F991F1A9469F7609570953F
:100F3000809590959B01AC01BD01CF010895052ED0
:100F400097FB1EF400940E94B60757FD07D00E943D
:100F50007D0707FC03D04EF40C94B60750954095DE
:100F6000309521953F4F4F4F5F4F08959095809555
:100F7000709561957F4F8F4F9F4F08950E94540940
:100F8000A59F900DB49F900DA49F800D911D1124DD
:100F90000895B7FF0C94BE070E94BE07821B930BF7
:100FA0000895DF93CF931F930F939A9DF02D219F68
:100FB000F00D8B9DF00D8A9DE02DF10D039FF00D3E
:100FC000029FE00DF11D4E9DE00DF11D5E9DF00DA7
:100FD0004F9DF00D7F936F93BF92AF925F934F93AE
:100FE000D5010E9454098B01AC01D7010E9454091C
:100FF000EB01E80FF91FD6010E9420082F913F91C5
:10100000D6010E945409C60FD71FE81FF91FAF91E0
:10101000BF910E9420082F913F910E945409C60F52
:10102000D71FE81FF91FD6010E945409E60FF71FCA
:101030009801BE01CF010F911F91CF91DF910895CB
:101040000E945409460F571FC81FD91F08F4319634
:101050000895689401C0E894F92FF12B12F00C94D4
:101060005D08A0E0B0E0E7E3F8E00C94CF08092EBB
:10107000059422F40E94B908112392F4F0E80F2697
:10108000FFEFE094F09400951095B094C094D09444
:10109000A194BF0ACF0ADF0AEF0AFF0A0F0B1F0B4A
:1010A0000E94680807FC0E94B908CDB7DEB7ECE0E3
:1010B0000C94EB08689401C0E8948F929F92CF93B0
:1010C000DF930E946808DF91CF919F908F900895E1
:1010D00088249924F401E401B0E49F93AA279A1587
:1010E0008B049C04ED05FE05CF05D007A10798F4FD
:1010F000AD2FDC2FCF2FFE2FE92D982C892E982F86
:10110000872F762F652F542F432F322F2227B85049
:1011100031F7BF9127C01B2EBF91BB27220F331F72
:10112000441F551F661F771F881F991F881C991C15
:10113000EE1FFF1FCC1FDD1FAA1FBB1F8A149B04BD
:10114000EC05FD05CE05DF05A007B10748F08A18BC
:101150009B08EC09FD09CE09DF09A00BB10B21604A
:101160001A94E1F62EF49401AF01BE01CD01000CFA
:10117000089560957095809590953095409550951F
:1011800021953F4F4F4F5F4F6F4F7F4F8F4F9F4F77
:1011900008952F923F924F925F926F927F928F921B
:1011A0009F92AF92BF92CF92DF92EF92FF920F93F6
:1011B0001F93CF93DF93CDB7DEB7CA1BDB0B0FB600
:1011C000F894DEBF0FBECDBF09942A8839884888BD
:1011D0005F846E847D848C849B84AA84B984C88453
:1011E000DF80EE80FD800C811B81AA81B981CE0F4A
:1011F000D11D0FB6F894DEBF0FBECDBFED0108952F
:10120000002E083090F0982F872F762F652F542FBF
:10121000432F322F22270850F4CF220F331F441FB1
:10122000551F661F771F881F991F0A95B2F7002D5B
:10123000089597FD1094002E083098F00850232F41
:10124000342F452F562F672F782F892F912DF4CFCC
:101250001594979587957795679557954795379501
:1012600027950A95AAF71124002D08952A0D3B1DF4
:101270004C1D5D1D6E1D7F1D801F911F08952A1935
:101280003B094C095D096E097F09800B910B08959C
:101290000024A7FD00942A1730054005500560057D
:1012A0007005800590050895A29FB001B39FC0010D
:1012B000A39F700D811D1124911DB29F700D811D82
:1012C0001124911D0895BB272A3051F4992342F42B
:1012D000BDE290958095709561957F4F8F4F9F4FA0
:1012E0000C947309BB27FA01A62F621771058105BB
:1012F0009105330B30FB66F0AA27660F771F881F16
:10130000991FAA1FA21710F0A21B63953850A9F7C6
:10131000A05DAA3308F0A95DA19336F7B111B1938E
:101320001082CA010C949409DC01FC01672F7191B1
:101330007723E1F7329704C07C916D9370836291BB
:0C134000AE17BF07C8F30895F894FFCF64
:10134C0000000000003E5B4F5B3E3E6B4F6B3E1C53
:10135C003E7C3E1C183C7E3C181C577D571C1C5E6A
:10136C007F5E1C00183C1800FFE7C3E7FF00182441
:10137C001800FFE7DBE7FF30483A060E26297929EB
:10138C0026407F050507407F05253F5A3CE73C5A20
:10139C007F3E1C1C08081C1C3E7F14227F22145FFD
:1013AC005F005F5F06097F017F006689956A606058
:1013BC0060606094A2FFA29408047E040810207E52
:1013CC00201008082A1C08081C2A08081E101010D7
:1013DC00100C1E0C1E0C30383E3830060E3E0E061D
:1013EC00000000000000005F000000070007001470
:1013FC007F147F14242A7F2A12231308646236492F
:10140C005620500008070300001C22410000412216
:10141C001C002A1C7F1C2A08083E0808008070301B
:10142C00000808080808000060600020100804028A
:10143C003E5149453E00427F400072494949462190
:10144C0041494D331814127F1027454545393C4A04
:10145C00494931412111090736494949364649491B
:10146C00291E000014000000403400000008142263
:10147C0041141414141400412214080201590906D1
:10148C003E415D594E7C1211127C7F494949363ED2
:10149C00414141227F4141413E7F494949417F09B8
:1014AC000909013E414151737F0808087F00417FC3
:1014BC0041002040413F017F081422417F404040C1
:1014CC00407F021C027F7F0408107F3E4141413E59
:1014DC007F090909063E4151215E7F0919294626DB
:1014EC004949493203017F01033F4040403F1F20DF
:1014FC0040201F3F4038403F6314081463030478B6
:10150C0004036159494D43007F41414102040810D5
:10151C0020004141417F0402010204404040404010
:10152C00000307080020545478407F28444438387E
:10153C0044444428384444287F38545454180008F0
:10154C007E090218A4A49C787F0804047800447DCA
:10155C0040002040403D007F1028440000417F4067
:10156C00007C047804787C080404783844444438BB
:10157C00FC1824241818242418FC7C08040408489B
:10158C005454542404043F44243C4040207C1C20EC
:10159C0040201C3C4030403C44281028444C909047
:1015AC00907C4464544C44000836410000007700A1
:1015BC0000004136080002010204023C2623263CAE
:1015CC001EA1A161123A4040207A38545455592139
:1015DC005555794122545478422155547840205421
:1015EC005579400C1E52721239555555593954546F
:1015FC00545939555454580000457C410002457DDE
:10160C00420001457C407D1211127DF0282528F006
:10161C007C545545002054547C547C0A097F493233
:10162C00494949323A4444443A324A4848303A41AA
:10163C0041217A3A42402078009DA0A07D3D424253
:10164C00423D3D4040403D3C24FF2424487E4943DC
:10165C00662B2FFC2F2BFF0929F620C0887E09034F
:10166C0020545479410000447D413048484A323876
:10167C004040227A007A0A0A727D0D19317D2629A2
:10168C00292F28262929292630484D40203808089A
:10169C00080808080808382F10C8ACBA2F102834CE
:1016AC00FA00007B000008142A142222142A1408C1
:1016BC005500550055AA55AA55AAFF55FF55FF00D0
:1016CC000000FF00101010FF00141414FF00101085
:1016DC00FF00FF1010F010F0141414FC001414F799
:1016EC0000FF0000FF00FF1414F404FC1414171086
:1016FC001F10101F101F1414141F00101010F000D6
:10170C000000001F101010101F10101010F010000F
:10171C000000FF101010101010101010FF1000001F
:10172C0000FF140000FF00FF00001F10170000FC5A
:10173C0004F414141710171414F404F40000FF002C
:10174C00F714141414141414F700F71414141714B5
:10175C0010101F101F141414F4141010F010F000BB
:10176C00001F101F0000001F14000000FC140000DC
:10177C00F010F01010FF10FF141414FF14101010C0
:10178C001F00000000F010FFFFFFFFFFF0F0F0F073
:10179C00F0FFFFFF0000000000FFFF0F0F0F0F0F07
:1017AC003844443844FC4A4A4A347E020206060253
:1017BC007E027E0263554941633844443C04407EBA
:1017CC00201E2006027E020299A5E7A5991C2A4933
:1017DC002A1C4C7201724C304A4D4D3030487848BE
:1017EC0030BC625A463D3E494949007E0101017EAA
:1017FC002A2A2A2A2A44445F444440514A444040FD
:10180C00444A51400000FF0103E080FF000008083B
:10181C006B6B083612362436060F090F06000018BB
:10182C00180000001010003040FF0101001F0101E2
:10183C001E00191D1712003C3C3C3C00000000002F
:10184C00436869702049443A20000D0A00424D500B
:10185C003238302053656E736F72005261772054AA
:10186C00656D70657261747572653A2000526177AE
:10187C002050726573737572653A200054656D70F3
:10188C00657261747572653A202D002E002043003C
:10189C0020685061003031323334353637383941B5
:0E18AC004243444546001B5B324A1B5B48002A
:00000001FF
