:100000000C9434000C9446000C9446000C9446006A
:100010000C9446000C9446000C9446000C946F001F
:100020000C9446000C9446000C9446000C94480036
:100030000C9446000C9446000C9446000C94460028
:100040000C9446000C9446000C9446000C94460018
:100050000C9446000C9446000C9446000C94460008
:100060000C9446000C94460011241FBECFEFD8E03C
:10007000DEBFCDBF21E0A0E0B1E001C01D92A43001
:10008000B207E1F70E9496000C94E5000C94000082
:100090001F921FB61F9211242F938F939F938091CD
:1000A000020190910301833C994078F085B192E080
:1000B000892785B910920301109202019F918F91B7
:1000C0002F911F901FBE1F90189580910201909153
:1000D000030101969093030180930201EFCF1F92D9
:1000E0001FB61F9211242F938F939F93809100012D
:1000F000909101018037924078F085B194E0892792
:1001000085B910920101109200019F918F912F915A
:100110001F901FBE1F9018958091000190910101C2
:1001200001969093010180930001EFCF219A229ACA
:1001300078941092850010928400809180008C7FCA
:1001400080938000809181008860809381008091FD
:1001500081008F7E80938100809181008B7F8093CE
:1001600081008091810083608093810087EC90E022
:10017000909389008093880080916F0082608093C3
:100180006F001092B2008091B0008E7F8093B0001B
:100190008091B00082608093B0008091B100877F31
:1001A0008093B1008091B1008C7F8093B1008091E9
:1001B000B10084608093B10087EC8093B30080919C
:0E01C0007000826080937000FFCFF894FFCF34
:00000001FF
