S017000070776D5F3330647574796379636C652E7372656321
S11300000C9434000C943E000C943E000C943E007E
S11300100C943E000C943E000C943E000C943E0064
S11300200C943E000C943E000C943E000C943E0054
S11300300C943E000C943E000C943E000C943E0044
S11300400C943E000C943E000C943E000C943E0034
S11300500C943E000C943E000C943E000C943E0024
S11300600C943E000C943E0011241FBECFEFD8E048
S1130070DEBFCDBF0E9440000C945B000C940000D6
S11300808AB180648AB984B5816084BD84B58D7F6A
S113009084BD84B5806884BD84B58F7B84BD85B5FB
S11300A0826085BD85B58E7F85BD85B58B7F85BD19
S10D00B08DE487BDFFCFF894FFCF65
S9030000FC
