S017000070776D5F6C65645F64696D6D696E672E73726563E1
S11300000C9434000C943E000C943E000C943E007E
S11300100C943E000C943E000C943E000C943E0064
S11300200C943E000C943E000C943E000C943E0054
S11300300C943E000C943E000C943E000C943E0044
S11300400C943E000C943E000C943E000C943E0034
S11300500C943E000C943E000C943E000C943E0024
S11300600C943E000C943E0011241FBECFEFD8E048
S1130070DEBFCDBF0E9440000C9475000C940000BC
S11300808AB180648AB984B5816084BD84B58D7F6A
S113009084BD84B5806884BD84B58F7B84BD85B5FB
S11300A0826085BD85B58E7F85BD85B58B7F85BD19
S11300B080E090E008C087BDEFE1FEE43197F1F7FE
S11300C000C0000001968F3F9105A9F3A4F38FEFC0
S11300D090E008C087BDEFE1FEE43197F1F700C07E
S11100E0000001979923B4F7E3CFF894FFCF03
S9030000FC
