:100000000C9434000C9448000C9446000C94460068
:100010000C9446000C9446000C9446000C94460048
:100020000C9446000C9446000C9446000C94460038
:100030000C9446000C9446000C9446000C94460028
:100040000C9446000C9446000C9446000C94460018
:100050000C9446000C9446000C9446000C94460008
:100060000C9446000C94460011241FBECFEFD8E03C
:10007000DEBFCDBF21E0A0E0B1E001C01D92A13004
:10008000B207E1F70E946F000C94A6000C940000E8
:100090008F9381E0809300018F9118952B9A85B101
:1000A000897F85B90895299A85B1837F85B9089597
:1000B0002A9A85B1857F85B90895809100018823AA
:1000C00069F00E9453002FEF87EA91E621508040AB
:1000D0009040E1F700C0000010920001089578946C
:1000E000E89A80916900836080936900E09A84B106
:1000F0008E6084B952985A980E944E002AEA36EED1
:1001000086E991E02150304080409040D9F70000CE
:100110000E945D000E9458002FEF3BE782E92150CA
:1001200030408040E1F700C000000E945D000E9466
:1001300053009AEA26EE36E981E0915020403040A3
:100140008040D9F700000E945D00D6CFF894FFCF21
:00000001FF
