:100000000C9434000C943E000C943E000C943E0082
:100010000C943E000C943E000C943E000C943E0068
:100020000C943E000C943E000C943E000C943E0058
:100030000C943E000C943E000C943E000C943E0048
:100040000C943E000C943E000C943E000C943E0038
:100050000C943E000C943E000C943E000C943E0028
:100060000C943E000C943E0011241FBECFEFD8E04C
:10007000DEBFCDBF0E9462000C9472000C940000A1
:10008000ECE7F0E080818064808380818F778083DB
:1000900080818F7D80838081807F8083EAE7F0E0AC
:1000A0008081806880838081806480838081866095
:1000B000808380818E7F8083EEE7F0E080818160A5
:1000C000808308950E94400080917A0086FDFCCFD5
:1000D0008091780080917900EAE7F0E08081806487
:0800E0008083F2CFF894FFCFFA
:00000001FF
