:100000000C9434000C943E000C943E000C943E0082
:100010000C943E000C943E000C943E000C943E0068
:100020000C943E000C943E000C943E000C943E0058
:100030000C943E000C943E000C943E000C943E0048
:100040000C943E000C943E000C943E000C943E0038
:100050000C943E000C943E000C943E000C943E0028
:100060000C943E000C943E0011241FBECFEFD8E04C
:10007000DEBFCDBF0E9459000C947B000C940000A1
:10008000815008F408959EE4A99BFECFA99A91504F
:10009000D9F7F6CF2B9A85B1897F85B90895299A2A
:1000A00085B1837F85B908952A9A85B1857F85B901
:1000B0000895219A229A239A16BC84B58E7F84BD16
:1000C00084B5826084BD85B5856085BD85B58D7F2D
:1000D00085BD87EC87BD0E944F008AE00E944000EA
:1000E0000E94540083E00E9440000E944A008AE07F
:0A00F0000E944000F0CFF894FFCF0B
:00000001FF
