:100000000C9434000C9459000C9446000C94460057
:100010000C9446000C9446000C9446000C94460048
:100020000C9446000C9446000C9446000C94460038
:100030000C9446000C9446000C9446000C94460028
:100040000C9446000C9446000C9446000C94460018
:100050000C9446000C9446000C9446000C94460008
:100060000C9446000C94460011241FBECFEFD8E03C
:10007000DEBFCDBF21E0A0E0B1E001C01D92A13004
:10008000B207E1F70E947F000C94D8000C940000A6
:1000900085B1857F85B985B1846085B985B1806278
:1000A00085B985B18F7E85B9089585B18F7C85B975
:1000B00008951F920F920FB60F9211248F93299BD0
:1000C00003C081E0809300018F910F900FBE0F90CD
:1000D0001F90189585B1846085B985B1857F85B9F4
:1000E000089585B1886085B985B1897F85B90895FE
:1000F00085B1826085B985B1837F85B908958AB15C
:100100008B7F8AB984B1846084B984B1826084B9F8
:1001100084B1886084B984B1806384B978948DB3E4
:1001200081608DBBE9E6F0E08081836080838CB3E1
:1001300081608CBB0E946A002FEF8FE493EC21500A
:1001400080409040E1F700C000000E9471002FEF56
:100150008FE493EC215080409040E1F700C0000014
:100160000E9478002FEF8FE493EC21508040904064
:10017000E1F700C00000809100018823D9F21092BD
:1001800000012FEF8BE792E9215080409040E1F78A
:1001900000C000000E9448002FEF83E294EF21503E
:1001A00080409040E1F700C000000E945500C2CF9F
:0401B000F894FFCFF1
:00000001FF
