S01B0000747261666669635F6C696768745F6D6F746F722E7372656323
S11300000C9434000C943E000C943E000C943E007E
S11300100C943E000C943E000C943E000C943E0064
S11300200C943E000C943E000C943E000C943E0054
S11300300C943E000C943E000C943E000C943E0044
S11300400C943E000C943E000C943E000C943E0034
S11300500C943E000C943E000C943E000C943E0024
S11300600C943E000C943E0011241FBECFEFD8E048
S1130070DEBFCDBF0E9473000C94E6000C94000018
S113008088B1826088B988B18B7F88B988B1877F4D
S113009088B9089588B1846088B988B18D7F88B99A
S11300A088B1877F88B9089588B1886088B988B194
S11300B08D7F88B988B18B7F88B9089585B18460B4
S11300C085B985B18D7F85B9089585B18B7F85B953
S11300D085B18D7F85B9089585B1826085B985B173
S11300E08B7F85B908958AB18D7F8AB987B1826083
S11300F087B987B1846087B987B1886087B984B1CB
S1130100826084B984B1846084B90E9440004999B2
S113011032C00E945E000E9454002AEA36EE86E94C
S113012091E02150304080409040D9F700000E9477
S113013065002FEF37EA81E6215030408040E1F737
S113014000C000000E946C009AEA26EE36E981E0C5
S11301509150204030408040D9F700000E94650053
S11301609FEF23ED30E3915020403040E1F700C091
S113017000000E9440008FEF93E224EF81509040F2
S11301802040E1F700C000000E944A003FEF87EAE8
S113019091E6315080409040E1F700C000000E9499
S11301A054002FEF33E284EF215030408040E1F7D8
S11301B000C000000E944A009FEF27EA31E69150F8
S11301C020403040E1F700C000009FCFF894FFCFFB
S9030000FC
